:100000000C942A000C9462010C943C000C943C006B
:100010000C943C000C943C000C943C000C943C0070
:100020000C943C000C943C000C943C000C943C0060
:100030000C943C000C943C000C943C000C943C0050
:100040000C943C000C943C000C943C000C943C0040
:100050000C943C0011241FBECFE5D8E0DEBFCDBF1D
:1000600020E0A0E6B0E001C01D92A336B207E1F7A0
:100070000E9481010C9431050C94000062E081E43F
:100080000E94750161E081E40E94750160E081E4F5
:100090000E94750162E082E40E94750161E082E4E1
:1000A0000E94750160E082E40E94750162E084E4D0
:1000B0000E9471010E94E00242E060E081E00E9443
:1000C0007A0208951F93CF93DF9380916200882373
:1000D00021F0813009F48BC0F1C060E082E40E941D
:1000E0007D0162E082E40E947D0161E082E40E9481
:1000F0007D0160E081E40E947D0162E081E40E9474
:100100007D0161E081E40E947D0180916100813088
:10011000F9F020F0823009F44FC0D0C01092600096
:1001200062E082E40E94790161E081E40E947D0145
:1001300062E081E40E947D0160E081E40E94790137
:1001400088E893E10E94E20281E080936100B6C0FA
:100150001091600081E08093600062E082E40E9480
:10016000790160E081E40E947D0162E081E40E9407
:100170007D01C0E0D0E011C061E081E40E9479011E
:1001800088EE93E00E94E20261E081E40E947D013A
:100190008AEF90E00E94E2022196C430D10564F318
:1001A000112319F0123029F089C082E08093610098
:1001B00085C01092610082C082E08093600062E09E
:1001C00082E40E94790161E081E40E947D0160E0A7
:1001D00081E40E947D0162E081E40E94790188E867
:1001E00093E10E94E20281E08093610067C060E0D9
:1001F00081E40E947D0162E081E40E947D0161E072
:1002000081E40E947D0160E082E40E947D0162E061
:1002100082E40E947D0161E082E40E947D01809180
:1002200060008230A9F461E081E40E947D0160E019
:1002300081E40E947D0162E081E40E94790160E036
:1002400082E40E94790188E893E10E94E20234C0CE
:10025000823090F51AC061E081E40E94790161E08A
:1002600082E40E94790188EE93E00E94E20261E05C
:1002700081E40E947D0161E082E40E947D018AEFB9
:1002800090E00E94E202219602C0C0E0D0E0C430BB
:10029000D1050CF360E082E40E94790162E081E420
:1002A0000E94790180ED97E00E94E20281E0809354
:1002B000610082E08093600010926200DF91CF9134
:1002C0001F9108951F920F920FB60F9211248F93D2
:1002D00081E0809362008F910F900FBE0F901F906E
:1002E000189541E00E948601089541E00E94860130
:1002F000089541E00E940002089540E00E9400023B
:1003000008950E943E000E946200FDCF823431F1C8
:1003100018F4813439F008958334E1F1843409F418
:1003200054C0089541110CC02AB381E090E002C08E
:10033000880F991F6A95E2F7809582238ABB0895FA
:10034000413009F05CC02AB381E090E002C0880F20
:10035000991F6A95E2F7822B8ABB089541110CC060
:1003600027B381E090E002C0880F991F6A95E2F7F9
:100370008095822387BB0895413009F040C027B3A0
:1003800081E090E002C0880F991F6A95E2F7822B06
:1003900087BB089541110CC024B381E090E002C0F6
:1003A000880F991F6A95E2F78095822384BB089590
:1003B000413029F524B381E090E002C0880F991FF5
:1003C0006A95E2F7822B84BB089541110CC021B3DA
:1003D00081E090E002C0880F991F6A95E2F780954E
:1003E000822381BB0895413051F421B381E090E034
:1003F00002C0880F991F6A95E2F7822B81BB08958E
:10040000823431F118F4813439F008958334E1F104
:10041000843409F454C0089541110CC02BB381E019
:1004200090E002C0880F991F6A95E2F780958223B9
:100430008BBB0895413009F05CC02BB381E090E0A4
:1004400002C0880F991F6A95E2F7822B8BBB089533
:1004500041110CC028B381E090E002C0880F991FC1
:100460006A95E2F78095822388BB0895413009F0B0
:1004700040C028B381E090E002C0880F991F6A95C0
:10048000E2F7822B88BB089541110CC025B381E0AF
:1004900090E002C0880F991F6A95E2F78095822349
:1004A00085BB0895413029F525B381E090E002C075
:1004B000880F991F6A95E2F7822B85BB0895411139
:1004C0000CC022B381E090E002C0880F991F6A95AA
:1004D000E2F78095822382BB0895413051F422B324
:1004E00081E090E002C0880F991F6A95E2F7822BA5
:1004F00082BB0895813009F05FC07894613049F182
:1005000020F0623009F449C053C0413069F028F04E
:100510004230C1F0433079F04BC085B78E7F85BF44
:1005200085B78D7F85BF44C085B7816085BF85B79E
:100530008D7F85BF3DC085B78E7F85BF85B78260C3
:1005400085BF36C085B7816085BF85B7826085BFAE
:100550002FC0413069F028F04230C1F0433079F0CB
:1005600027C085B78B7F85BF85B7877F85BF20C0B4
:1005700085B7846085BF85B7877F85BF19C085B77C
:100580008B7F85BF85B7886085BF12C085B78460C3
:1005900085BF85B7886085BF0BC0423031F04330DE
:1005A00039F484B78F7B84BF03C084B7806484BF71
:1005B0008BB780648BBF0895811101C0F8940895B2
:1005C00013BE08958F929F92AF92BF92CF92DF9207
:1005D000EF92FF92CF93DF93EC0183B7846083BFE8
:1005E000BE0180E090E00E947F046B017C012FE659
:1005F00032E143E852E40E94D90388239CF4A70126
:1006000096016FE672E183E892E40E946C032FE6A4
:1006100032E143E85EE30E94DE030E945004C1E041
:10062000D0E03FC0C134D105C9F12FE632E143E843
:1006300052E4C701B6010E946D0320E030E040E8BB
:100640005FE30E946C032FE632E143E852E40E942C
:10065000DE030E9450044B015C01EB012FE632E106
:1006600043E85EE3C701B6010E94DE036B017C0133
:10067000B40180E090E00E947F049B01AC01C701BF
:10068000B6010E94DE039B01AC0160E070E080E8EF
:1006900093E40E946C030E94500403C060E0C1E038
:1006A000D0E062BF20E030E008C008B600FEFDCF19
:1006B00088B7816088BF2F5F3F4F2C173D07A8F395
:1006C00013BEDF91CF91FF90EF90DF90CF90BF905E
:1006D000AF909F908F9008955058BB27AA270E94F3
:1006E00084030C94F7040E94E90438F00E94F0049B
:1006F00020F039F49F3F19F426F40C94E6040EF42C
:10070000E095E7FB0C94E004E92F0E94080558F3FC
:10071000BA17620773078407950720F079F4A6F5E6
:100720000C942A050EF4E0950B2EBA2FA02D0B0188
:10073000B90190010C01CA01A0011124FF27591B26
:1007400099F0593F50F4503E68F11A16F040A22F2C
:10075000232F342F4427585FF3CF4695379527959D
:10076000A795F0405395C9F77EF41F16BA0B620B9C
:10077000730B840BBAF09150A1F0FF0FBB1F661FE3
:10078000771F881FC2F70EC0BA0F621F731F841F26
:1007900048F4879577956795B795F7959E3F08F04C
:1007A000B0CF9395880F08F09927EE0F979587950E
:1007B00008950E94BC0408F481E008950E94F203A9
:1007C0000C94F7040E94F00458F00E94E90440F0F1
:1007D00029F45F3F29F00C94E00451110C942B058F
:1007E0000C94E6040E94080568F39923B1F355239D
:1007F00091F3951B550BBB27AA2762177307840734
:1008000038F09F5F5F4F220F331F441FAA1FA9F3C9
:1008100035D00E2E3AF0E0E832D091505040E695B7
:10082000001CCAF72BD0FE2F29D0660F771F881F18
:10083000BB1F261737074807AB07B0E809F0BB0B0B
:10084000802DBF01FF2793585F4F3AF09E3F51051F
:1008500078F00C94E0040C942B055F3FE4F3983E91
:10086000D4F3869577956795B795F7959F5FC9F708
:10087000880F911D9695879597F90895E1E0660F89
:10088000771F881FBB1F621773078407BA0720F002
:10089000621B730B840BBA0BEE1F88F7E09508956B
:1008A0000E94100588F09F5798F0B92F9927B751EB
:1008B000B0F0E1F0660F771F881F991F1AF0BA9504
:1008C000C9F714C0B13091F00E942A05B1E0089533
:1008D0000C942A05672F782F8827B85F39F0B93F25
:1008E000CCF3869577956795B395D9F73EF49095B7
:1008F0008095709561957F4F8F4F9F4F0895E89435
:1009000009C097FB3EF490958095709561957F4F57
:100910008F4F9F4F9923A9F0F92F96E9BB27939505
:10092000F695879577956795B795F111F8CFFAF415
:10093000BB0F11F460FF1BC06F5F7F4F8F4F9F4F46
:1009400016C0882311F096E911C0772321F09EE8A4
:10095000872F762F05C0662371F096E8862F70E00A
:1009600060E02AF09A95660F771F881FDAF7880FE4
:100970009695879597F90895990F0008550FAA0B3A
:10098000E0E8FEEF16161706E807F907C0F01216A2
:100990001306E407F50798F0621B730B840B950BA5
:1009A00039F40A2661F0232B242B252B21F40895FA
:1009B0000A2609F4A140A6958FEF811D811D089597
:1009C00097F99F6780E870E060E008959FEF80EC02
:1009D000089500240A9416161706180609060895A5
:1009E00000240A9412161306140605060895092E0B
:1009F0000394000C11F4882352F0BB0F40F4BF2B7A
:100A000011F460FF04C06F5F7F4F8F4F9F4F0895B9
:100A100057FD9058440F551F59F05F3F71F04795AF
:100A2000880F97FB991F61F09F3F79F08795089594
:100A3000121613061406551FF2CF4695F1DF08C0B3
:100A4000161617061806991FF1CF869571056105D0
:100A500008940895E894BB2766277727CB0197F978
:060A60000895F894FFCF99
:00000001FF
